:100000000C9446000C945D000C945D000C945D0013
:100010000C945D000C945D000C945D000C945D00EC
:100020000C945D000C945D000C945D000C945D00DC
:100030000C945D000C945D000C945D000C945D00CC
:100040000C945D000C945D000C945D000C945D00BC
:100050000C945D000C945D000C945D000C945D00AC
:100060000C945D000C945D000C945D000C945D009C
:100070000C945D000C945D000C945D000C945D008C
:100080000C945D000C945D000C945D0011241FBE67
:10009000CFEFD0E4DEBFCDBF11E0A0E0B1E0E2E2FF
:1000A000F2E000E00BBF02C007900D92AE30B10746
:1000B000D9F70E9488000C940F010C940000CF9394
:1000C000DF9300D01F92CDB7DEB789837B836A832D
:1000D00089818A3031F48A819B81BC018DE00E9444
:1000E0005F0080EC90E0FC018081882F90E08072BE
:1000F00099270097B1F386EC90E02981FC012083D9
:1001000080E090E00F900F900F90DF91CF910895D5
:10011000CF93DF9300D01F92CDB7DEB781E290E09E
:10012000FC01108284E290E0FC01108287E290E002
:100130002FEFFC01208382E290E02FEFFC0120836F
:1001400085E290E02FEFFC01208388E290E0FC0143
:1001500010821A82198280E290E0FC0180818F7007
:100160008A8380E290E0FC01808182958F708B838E
:100170008A81882321F48981805C898344C08A81B3
:10018000813019F08A81823021F48981805A8983F3
:100190003AC08A81833019F08A81843021F48981C0
:1001A0008059898330C08A81853019F08A818630F0
:1001B00021F48981885C898326C08A81873031F067
:1001C0008A81883019F08A81893021F48981845CA0
:1001D000898319C08A818A3031F08A818B3019F085
:1001E0008A818C3021F48981825C89830CC08A8168
:1001F0008D3031F08A818E3019F08A818F3019F478
:100200008981815C89838B81833019F4898180584D
:10021000898388E290E02981FC0120839ACFF894B9
:02022000FFCF0E
:0E02220000000002000000005F00000000006D
:00000001FF
