:100000000C9446000C945D000C945D000C945D0013
:100010000C945D000C945D000C945D000C945D00EC
:100020000C945D000C945D000C945D000C945D00DC
:100030000C945D000C945D000C945D000C945D00CC
:100040000C945D000C945D000C945D000C945D00BC
:100050000C945D000C945D000C945D000C945D00AC
:100060000C945D000C945D000C945D000C945D009C
:100070000C945D000C945D000C945D000C945D008C
:100080000C945D000C945D000C945D0011241FBE67
:10009000CFEFD0E4DEBFCDBF11E0A0E0B1E0ECE8EF
:1000A000F1E000E00BBF02C007900D92AE30B10747
:1000B000D9F70E9488000C94C4000C940000CF93E0
:1000C000DF9300D01F92CDB7DEB789837B836A832D
:1000D00089818A3031F48A819B81BC018DE00E9444
:1000E0005F0080EC90E0FC018081882F90E08072BE
:1000F00099270097B1F386EC90E02981FC012083D9
:1001000080E090E00F900F900F90DF91CF910895D5
:10011000CF93DF9300D0CDB7DEB781E290E0FC0152
:10012000108284E290E02FEFFC01208387E290E0D0
:100130002FEFFC01208382E290E02FEFFC0120836F
:1001400085E290E0FC01108288E290E0FC011082E0
:1001500080E290E0FC0180818F70898380E290E0F2
:10016000FC01808182958F708A8385E290E02A81EC
:10017000FC01208389818295807F898388E290E0D9
:0C0180002981FC012083E4CFF894FFCF1C
:0E018C0000000002000000005F000000000004
:00000001FF
