:100000000C9446000C945D000C945D000C945D0013
:100010000C945D000C945D000C945D000C945D00EC
:100020000C945D000C945D000C945D000C945D00DC
:100030000C945D000C945D000C945D000C945D00CC
:100040000C945D000C945D000C945D000C945D00BC
:100050000C945D000C945D000C945D000C945D00AC
:100060000C945D000C945D000C945D000C945D009C
:100070000C945D000C945D000C945D000C945D008C
:100080000C945D000C945D000C945D0011241FBE67
:10009000CFEFD0E4DEBFCDBF11E0A0E0B1E0E4ECF3
:1000A000F1E000E00BBF02C007900D92AE30B10747
:1000B000D9F70E9488000C94E0000C940000CF93C4
:1000C000DF9300D01F92CDB7DEB789837B836A832D
:1000D00089818A3031F48A819B81BC018DE00E9444
:1000E0005F0080EC90E0FC018081882F90E08072BE
:1000F00099270097B1F386EC90E02981FC012083D9
:1001000080E090E00F900F900F90DF91CF910895D5
:10011000CF93DF9300D0CDB7DEB781E290E0FC0152
:10012000108284E290E0FC01108287E290E02FEFE1
:10013000FC01208382E290E02FEFFC01208385E226
:1001400090E02FEFFC01208388E290E0FC01108218
:1001500019821A822CC080E290E0FC018081882FF5
:1001600090E02981222F30E002C0959587952A954D
:10017000E2F781709927982F8A81890F8A8383E219
:1001800090E0FC018081882F90E02981222F30E0CF
:10019000022E02C0959587950A94E2F781709927FF
:1001A000982F8A81890F8A8389818F5F89838981CA
:1001B000883088F288E290E02A81FC012083C8CF51
:0401C000F894FFCFE1
:0E01C40000000002000000005F0000000000CC
:00000001FF
